{
  "contractName": "Token",
  "abi": [
    {
      "inputs": [],
      "payable": false,
      "stateMutability": "nonpayable",
      "type": "constructor",
      "signature": "constructor"
    },
    {
      "anonymous": false,
      "inputs": [
        {
          "indexed": true,
          "name": "_orderId",
          "type": "uint256"
        },
        {
          "indexed": false,
          "name": "_currentLocation",
          "type": "string"
        },
        {
          "indexed": false,
          "name": "_currentOwner",
          "type": "string"
        }
      ],
      "name": "Transfer",
      "type": "event",
      "signature": "0x99e02ac05563b833ea0c89a3ce7274cc0f4a9fb679feed00707982a909a93b8c"
    },
    {
      "constant": false,
      "inputs": [
        {
          "name": "_orderId",
          "type": "uint256"
        },
        {
          "name": "_currentLocation",
          "type": "string"
        },
        {
          "name": "_currentOwner",
          "type": "string"
        },
        {
          "name": "_currentPassword",
          "type": "string"
        }
      ],
      "name": "createOrder",
      "outputs": [],
      "payable": false,
      "stateMutability": "nonpayable",
      "type": "function",
      "signature": "0xfb596fb4"
    },
    {
      "constant": false,
      "inputs": [
        {
          "name": "_orderId",
          "type": "uint256"
        },
        {
          "name": "_nextLocation",
          "type": "string"
        },
        {
          "name": "_nextOwner",
          "type": "string"
        },
        {
          "name": "_nextPassword",
          "type": "string"
        }
      ],
      "name": "requestTransfer",
      "outputs": [],
      "payable": false,
      "stateMutability": "nonpayable",
      "type": "function",
      "signature": "0x9365c615"
    },
    {
      "constant": false,
      "inputs": [
        {
          "name": "_orderId",
          "type": "uint256"
        },
        {
          "name": "_currentPassword",
          "type": "string"
        }
      ],
      "name": "approveTransfer",
      "outputs": [],
      "payable": false,
      "stateMutability": "nonpayable",
      "type": "function",
      "signature": "0x5ccef3e7"
    },
    {
      "constant": false,
      "inputs": [
        {
          "name": "_orderId",
          "type": "uint256"
        },
        {
          "name": "_currentPassword",
          "type": "string"
        }
      ],
      "name": "rejectTransfer",
      "outputs": [],
      "payable": false,
      "stateMutability": "nonpayable",
      "type": "function",
      "signature": "0x6b43c9e4"
    },
    {
      "constant": true,
      "inputs": [
        {
          "name": "_orderId",
          "type": "uint256"
        }
      ],
      "name": "isTransferRequested",
      "outputs": [
        {
          "name": "",
          "type": "bool"
        }
      ],
      "payable": false,
      "stateMutability": "view",
      "type": "function",
      "signature": "0x68e44d20"
    },
    {
      "constant": true,
      "inputs": [
        {
          "name": "_orderId",
          "type": "uint256"
        }
      ],
      "name": "getCurrentOwner",
      "outputs": [
        {
          "name": "",
          "type": "string"
        }
      ],
      "payable": false,
      "stateMutability": "view",
      "type": "function",
      "signature": "0x7ace341b"
    },
    {
      "constant": true,
      "inputs": [
        {
          "name": "_orderId",
          "type": "uint256"
        }
      ],
      "name": "getNextOwner",
      "outputs": [
        {
          "name": "",
          "type": "string"
        }
      ],
      "payable": false,
      "stateMutability": "view",
      "type": "function",
      "signature": "0x1b2ab868"
    }
  ],
  "bytecode": "0x608060405234801561001057600080fd5b5033600160006101000a81548173ffffffffffffffffffffffffffffffffffffffff021916908373ffffffffffffffffffffffffffffffffffffffff1602179055506123be806100616000396000f3fe608060405260043610610083576000357c0100000000000000000000000000000000000000000000000000000000900463ffffffff1680631b2ab868146100885780635ccef3e71461013c57806368e44d201461020e5780636b43c9e4146102615780637ace341b146103335780639365c615146103e7578063fb596fb4146105e7575b600080fd5b34801561009457600080fd5b506100c1600480360360208110156100ab57600080fd5b81019080803590602001909291905050506107e7565b6040518080602001828103825283818151815260200191508051906020019080838360005b838110156101015780820151818401526020810190506100e6565b50505050905090810190601f16801561012e5780820380516001836020036101000a031916815260200191505b509250505060405180910390f35b34801561014857600080fd5b5061020c6004803603604081101561015f57600080fd5b81019080803590602001909291908035906020019064010000000081111561018657600080fd5b82018360208201111561019857600080fd5b803590602001918460018302840111640100000000831117156101ba57600080fd5b91908080601f016020809104026020016040519081016040528093929190818152602001838380828437600081840152601f19601f8201169050808301925050505050505091929192905050506109e4565b005b34801561021a57600080fd5b506102476004803603602081101561023157600080fd5b810190808035906020019092919050505061101b565b604051808215151515815260200191505060405180910390f35b34801561026d57600080fd5b506103316004803603604081101561028457600080fd5b8101908080359060200190929190803590602001906401000000008111156102ab57600080fd5b8201836020820111156102bd57600080fd5b803590602001918460018302840111640100000000831117156102df57600080fd5b91908080601f016020809104026020016040519081016040528093929190818152602001838380828437600081840152601f19601f82011690508083019250505050505050919291929050505061118d565b005b34801561033f57600080fd5b5061036c6004803603602081101561035657600080fd5b8101908080359060200190929190505050611595565b6040518080602001828103825283818151815260200191508051906020019080838360005b838110156103ac578082015181840152602081019050610391565b50505050905090810190601f1680156103d95780820380516001836020036101000a031916815260200191505b509250505060405180910390f35b3480156103f357600080fd5b506105e56004803603608081101561040a57600080fd5b81019080803590602001909291908035906020019064010000000081111561043157600080fd5b82018360208201111561044357600080fd5b8035906020019184600183028401116401000000008311171561046557600080fd5b91908080601f016020809104026020016040519081016040528093929190818152602001838380828437600081840152601f19601f820116905080830192505050505050509192919290803590602001906401000000008111156104c857600080fd5b8201836020820111156104da57600080fd5b803590602001918460018302840111640100000000831117156104fc57600080fd5b91908080601f016020809104026020016040519081016040528093929190818152602001838380828437600081840152601f19601f8201169050808301925050505050505091929192908035906020019064010000000081111561055f57600080fd5b82018360208201111561057157600080fd5b8035906020019184600183028401116401000000008311171561059357600080fd5b91908080601f016020809104026020016040519081016040528093929190818152602001838380828437600081840152601f19601f820116905080830192505050505050509192919290505050611792565b005b3480156105f357600080fd5b506107e56004803603608081101561060a57600080fd5b81019080803590602001909291908035906020019064010000000081111561063157600080fd5b82018360208201111561064357600080fd5b8035906020019184600183028401116401000000008311171561066557600080fd5b91908080601f016020809104026020016040519081016040528093929190818152602001838380828437600081840152601f19601f820116905080830192505050505050509192919290803590602001906401000000008111156106c857600080fd5b8201836020820111156106da57600080fd5b803590602001918460018302840111640100000000831117156106fc57600080fd5b91908080601f016020809104026020016040519081016040528093929190818152602001838380828437600081840152601f19601f8201169050808301925050505050505091929192908035906020019064010000000081111561075f57600080fd5b82018360208201111561077157600080fd5b8035906020019184600183028401116401000000008311171561079357600080fd5b91908080601f016020809104026020016040519081016040528093929190818152602001838380828437600081840152601f19601f820116905080830192505050505050509192919290505050611c2c565b005b60608160008060008381526020019081526020016000206000018054600181600116156101000203166002900490501415151561088c576040517f08c379a00000000000000000000000000000000000000000000000000000000081526004018080602001828103825260198152602001807f54686973206f7264657220646f6573206e6f742065786973740000000000000081525060200191505060405180910390fd5b60008060008381526020019081526020016000206001018054600181600116156101000203166002900490501415151561092e576040517f08c379a00000000000000000000000000000000000000000000000000000000081526004018080602001828103825260198152602001807f54686973206f7264657220646f6573206e6f742065786973740000000000000081525060200191505060405180910390fd5b6000808481526020019081526020016000206005018054600181600116156101000203166002900480601f0160208091040260200160405190810160405280929190818152602001828054600181600116156101000203166002900480156109d75780601f106109ac576101008083540402835291602001916109d7565b820191906000526020600020905b8154815290600101906020018083116109ba57829003601f168201915b5050505050915050919050565b33600160009054906101000a900473ffffffffffffffffffffffffffffffffffffffff1673ffffffffffffffffffffffffffffffffffffffff168173ffffffffffffffffffffffffffffffffffffffff16141515610ad0576040517f08c379a000000000000000000000000000000000000000000000000000000000815260040180806020018281038252602e8152602001807f4f6e6c79206f776e6572206973207065726d697474656420706572666f726d2081526020017f74686973206f7065726174696f6e00000000000000000000000000000000000081525060400191505060405180910390fd5b82600080600083815260200190815260200160002060000180546001816001161561010002031660029004905014151515610b73576040517f08c379a00000000000000000000000000000000000000000000000000000000081526004018080602001828103825260198152602001807f54686973206f7264657220646f6573206e6f742065786973740000000000000081525060200191505060405180910390fd5b600080600083815260200190815260200160002060010180546001816001161561010002031660029004905014151515610c15576040517f08c379a00000000000000000000000000000000000000000000000000000000081526004018080602001828103825260198152602001807f54686973206f7264657220646f6573206e6f742065786973740000000000000081525060200191505060405180910390fd5b8280519060200120600080868152602001908152602001600020600201548082141515610caa576040517f08c379a00000000000000000000000000000000000000000000000000000000081526004018080602001828103825260168152602001807f50617373776f72647320646f206e6f74206d617463680000000000000000000081525060200191505060405180910390fd5b610cb38661101b565b1515610d27576040517f08c379a00000000000000000000000000000000000000000000000000000000081526004018080602001828103825260158152602001807f4e6f206f6e6520746f207472616e7366657220746f000000000000000000000081525060200191505060405180910390fd5b6000808781526020019081526020016000206004016000808881526020019081526020016000206000019080546001816001161561010002031660029004610d709291906121e6565b506000808781526020019081526020016000206005016000808881526020019081526020016000206001019080546001816001161561010002031660029004610dba9291906121e6565b50600080878152602001908152602001600020600601546000808881526020019081526020016000206002018190555060206040519081016040528060008152506000808881526020019081526020016000206004019080519060200190610e2392919061226d565b5060206040519081016040528060008152506000808881526020019081526020016000206005019080519060200190610e5d92919061226d565b50600080600088815260200190815260200160002060060181905550600080600088815260200190815260200160002060030160006101000a81548160ff021916908315150217905550857f99e02ac05563b833ea0c89a3ce7274cc0f4a9fb679feed00707982a909a93b8c6000808981526020019081526020016000206000016000808a8152602001908152602001600020600101604051808060200180602001838103835285818154600181600116156101000203166002900481526020019150805460018160011615610100020316600290048015610f805780601f10610f5557610100808354040283529160200191610f80565b820191906000526020600020905b815481529060010190602001808311610f6357829003601f168201915b50508381038252848181546001816001161561010002031660029004815260200191508054600181600116156101000203166002900480156110035780601f10610fd857610100808354040283529160200191611003565b820191906000526020600020905b815481529060010190602001808311610fe657829003601f168201915b505094505050505060405180910390a2505050505050565b6000816000806000838152602001908152602001600020600001805460018160011615610100020316600290049050141515156110c0576040517f08c379a00000000000000000000000000000000000000000000000000000000081526004018080602001828103825260198152602001807f54686973206f7264657220646f6573206e6f742065786973740000000000000081525060200191505060405180910390fd5b600080600083815260200190815260200160002060010180546001816001161561010002031660029004905014151515611162576040517f08c379a00000000000000000000000000000000000000000000000000000000081526004018080602001828103825260198152602001807f54686973206f7264657220646f6573206e6f742065786973740000000000000081525060200191505060405180910390fd5b60008084815260200190815260200160002060030160009054906101000a900460ff16915050919050565b33600160009054906101000a900473ffffffffffffffffffffffffffffffffffffffff1673ffffffffffffffffffffffffffffffffffffffff168173ffffffffffffffffffffffffffffffffffffffff16141515611279576040517f08c379a000000000000000000000000000000000000000000000000000000000815260040180806020018281038252602e8152602001807f4f6e6c79206f776e6572206973207065726d697474656420706572666f726d2081526020017f74686973206f7065726174696f6e00000000000000000000000000000000000081525060400191505060405180910390fd5b8260008060008381526020019081526020016000206000018054600181600116156101000203166002900490501415151561131c576040517f08c379a00000000000000000000000000000000000000000000000000000000081526004018080602001828103825260198152602001807f54686973206f7264657220646f6573206e6f742065786973740000000000000081525060200191505060405180910390fd5b6000806000838152602001908152602001600020600101805460018160011615610100020316600290049050141515156113be576040517f08c379a00000000000000000000000000000000000000000000000000000000081526004018080602001828103825260198152602001807f54686973206f7264657220646f6573206e6f742065786973740000000000000081525060200191505060405180910390fd5b8280519060200120600080868152602001908152602001600020600201548082141515611453576040517f08c379a00000000000000000000000000000000000000000000000000000000081526004018080602001828103825260168152602001807f50617373776f72647320646f206e6f74206d617463680000000000000000000081525060200191505060405180910390fd5b61145c8661101b565b15156114d0576040517f08c379a000000000000000000000000000000000000000000000000000000000815260040180806020018281038252601e8152602001807f4e6f206f6e6520746f2072656a656374207472616e736665722066726f6d000081525060200191505060405180910390fd5b6020604051908101604052806000815250600080888152602001908152602001600020600401908051906020019061150992919061226d565b506020604051908101604052806000815250600080888152602001908152602001600020600501908051906020019061154392919061226d565b50600080600088815260200190815260200160002060060181905550600080600088815260200190815260200160002060030160006101000a81548160ff021916908315150217905550505050505050565b60608160008060008381526020019081526020016000206000018054600181600116156101000203166002900490501415151561163a576040517f08c379a00000000000000000000000000000000000000000000000000000000081526004018080602001828103825260198152602001807f54686973206f7264657220646f6573206e6f742065786973740000000000000081525060200191505060405180910390fd5b6000806000838152602001908152602001600020600101805460018160011615610100020316600290049050141515156116dc576040517f08c379a00000000000000000000000000000000000000000000000000000000081526004018080602001828103825260198152602001807f54686973206f7264657220646f6573206e6f742065786973740000000000000081525060200191505060405180910390fd5b6000808481526020019081526020016000206001018054600181600116156101000203166002900480601f0160208091040260200160405190810160405280929190818152602001828054600181600116156101000203166002900480156117855780601f1061175a57610100808354040283529160200191611785565b820191906000526020600020905b81548152906001019060200180831161176857829003601f168201915b5050505050915050919050565b33600160009054906101000a900473ffffffffffffffffffffffffffffffffffffffff1673ffffffffffffffffffffffffffffffffffffffff168173ffffffffffffffffffffffffffffffffffffffff1614151561187e576040517f08c379a000000000000000000000000000000000000000000000000000000000815260040180806020018281038252602e8152602001807f4f6e6c79206f776e6572206973207065726d697474656420706572666f726d2081526020017f74686973206f7065726174696f6e00000000000000000000000000000000000081525060400191505060405180910390fd5b84600080600083815260200190815260200160002060000180546001816001161561010002031660029004905014151515611921576040517f08c379a00000000000000000000000000000000000000000000000000000000081526004018080602001828103825260198152602001807f54686973206f7264657220646f6573206e6f742065786973740000000000000081525060200191505060405180910390fd5b6000806000838152602001908152602001600020600101805460018160011615610100020316600290049050141515156119c3576040517f08c379a00000000000000000000000000000000000000000000000000000000081526004018080602001828103825260198152602001807f54686973206f7264657220646f6573206e6f742065786973740000000000000081525060200191505060405180910390fd5b84846000825114151515611a3f576040517f08c379a00000000000000000000000000000000000000000000000000000000081526004018080602001828103825260188152602001807f496e76616c69642043757272656e74204c6f636174696f6e000000000000000081525060200191505060405180910390fd5b6000815114151515611ab9576040517f08c379a00000000000000000000000000000000000000000000000000000000081526004018080602001828103825260158152602001807f496e76616c69642043757272656e74204f776e6572000000000000000000000081525060200191505060405180910390fd5b876000151560008083815260200190815260200160002060030160009054906101000a900460ff161515141515611b7e576040517f08c379a000000000000000000000000000000000000000000000000000000000815260040180806020018281038252602d8152602001807f54686973206f7264657220686173206265656e2072657175657374656420627981526020017f20736f6d656f6e6520656c73650000000000000000000000000000000000000081525060400191505060405180910390fd5b60016000808b815260200190815260200160002060030160006101000a81548160ff021916908315150217905550876000808b81526020019081526020016000206004019080519060200190611bd592919061226d565b50866000808b81526020019081526020016000206005019080519060200190611bff92919061226d565b5085805190602001206000808b815260200190815260200160002060060181905550505050505050505050565b33600160009054906101000a900473ffffffffffffffffffffffffffffffffffffffff1673ffffffffffffffffffffffffffffffffffffffff168173ffffffffffffffffffffffffffffffffffffffff16141515611d18576040517f08c379a000000000000000000000000000000000000000000000000000000000815260040180806020018281038252602e8152602001807f4f6e6c79206f776e6572206973207065726d697474656420706572666f726d2081526020017f74686973206f7065726174696f6e00000000000000000000000000000000000081525060400191505060405180910390fd5b846000806000838152602001908152602001600020600001805460018160011615610100020316600290049050141515611dba576040517f08c379a00000000000000000000000000000000000000000000000000000000081526004018080602001828103825260198152602001807f54686973206f7264657220616c7265616479206578697374730000000000000081525060200191505060405180910390fd5b6000806000838152602001908152602001600020600101805460018160011615610100020316600290049050141515611e5b576040517f08c379a00000000000000000000000000000000000000000000000000000000081526004018080602001828103825260198152602001807f54686973206f7264657220616c7265616479206578697374730000000000000081525060200191505060405180910390fd5b84846000825114151515611ed7576040517f08c379a00000000000000000000000000000000000000000000000000000000081526004018080602001828103825260188152602001807f496e76616c69642043757272656e74204c6f636174696f6e000000000000000081525060200191505060405180910390fd5b6000815114151515611f51576040517f08c379a00000000000000000000000000000000000000000000000000000000081526004018080602001828103825260158152602001807f496e76616c69642043757272656e74204f776e6572000000000000000000000081525060200191505060405180910390fd5b60e06040519081016040528088815260200187815260200186805190602001208152602001600015158152602001602060405190810160405280600081525081526020016020604051908101604052806000815250815260200160008019168152506000808a81526020019081526020016000206000820151816000019080519060200190611fe19291906122ed565b506020820151816001019080519060200190611ffe9291906122ed565b506040820151816002015560608201518160030160006101000a81548160ff02191690831515021790555060808201518160040190805190602001906120459291906122ed565b5060a08201518160050190805190602001906120629291906122ed565b5060c08201518160060155905050877f99e02ac05563b833ea0c89a3ce7274cc0f4a9fb679feed00707982a909a93b8c6000808b81526020019081526020016000206000016000808c81526020019081526020016000206001016040518080602001806020018381038352858181546001816001161561010002031660029004815260200191508054600181600116156101000203166002900480156121495780601f1061211e57610100808354040283529160200191612149565b820191906000526020600020905b81548152906001019060200180831161212c57829003601f168201915b50508381038252848181546001816001161561010002031660029004815260200191508054600181600116156101000203166002900480156121cc5780601f106121a1576101008083540402835291602001916121cc565b820191906000526020600020905b8154815290600101906020018083116121af57829003601f168201915b505094505050505060405180910390a25050505050505050565b828054600181600116156101000203166002900490600052602060002090601f016020900481019282601f1061221f578054855561225c565b8280016001018555821561225c57600052602060002091601f016020900482015b8281111561225b578254825591600101919060010190612240565b5b509050612269919061236d565b5090565b828054600181600116156101000203166002900490600052602060002090601f016020900481019282601f106122ae57805160ff19168380011785556122dc565b828001600101855582156122dc579182015b828111156122db5782518255916020019190600101906122c0565b5b5090506122e9919061236d565b5090565b828054600181600116156101000203166002900490600052602060002090601f016020900481019282601f1061232e57805160ff191683800117855561235c565b8280016001018555821561235c579182015b8281111561235b578251825591602001919060010190612340565b5b509050612369919061236d565b5090565b61238f91905b8082111561238b576000816000905550600101612373565b5090565b9056fea165627a7a7230582052838664898e3fa447a9989d3f5939c0c22cf053ea81404b297b2362d397873b0029",
  "source": "pragma solidity ^0.5.0;\n\ncontract Token{\n  struct Order {\n    string currentLocation;\n    string currentOwner;\n    bytes32 currentPassword;\n    bool requested;\n    string nextLocation;\n    string nextOwner;\n    bytes32 nextPassword;\n  }\n\n  mapping(uint => Order) orders;\n\n  address owner;\n\n  constructor () public {\n    owner = msg.sender;\n  }\n\n  event Transfer(\n    uint indexed _orderId,\n    string _currentLocation,\n    string _currentOwner\n  );\n\n  modifier onlyOwner(address _sender) {\n    require(_sender == owner, \"Only owner is permitted perform this operation\");\n    _;\n  }\n\n  modifier notExistingOrder(uint _orderId) {\n    require(\n      bytes(orders[_orderId].currentLocation).length == 0,\n      \"This order already exists\"\n    );\n    require(\n      bytes(orders[_orderId].currentOwner).length == 0,\n      \"This order already exists\"\n    );\n    _;\n  }\n\n  modifier existingOrder(uint _orderId) {\n    require(\n      bytes(orders[_orderId].currentLocation).length != 0,\n      \"This order does not exist\"\n    );\n    require(\n      bytes(orders[_orderId].currentOwner).length != 0,\n      \"This order does not exist\"\n    );\n    _;\n  }\n\n  modifier validCreation(\n    string memory _currentLocation,\n    string memory _currentOwner\n  )\n  {\n    require(bytes(_currentLocation).length != 0, \"Invalid Current Location\");\n    require(bytes(_currentOwner).length != 0, \"Invalid Current Owner\");\n    _;\n  }\n\n  modifier notAlreadyRequested(uint _orderId) {\n    require(\n      orders[_orderId].requested == false,\n      \"This order has been requested by someone else\"\n    );\n    _;\n  }\n\n  modifier comparePassword(bytes32 password1, bytes32 password2) {\n    require(password1 == password2, \"Passwords do not match\");\n    _;\n  }\n\n  function createOrder(\n    uint _orderId,\n    string memory _currentLocation,\n    string memory _currentOwner,\n    string memory _currentPassword\n  )\n    public\n    onlyOwner(msg.sender)\n    notExistingOrder(_orderId)\n    validCreation(_currentLocation, _currentOwner)\n  {\n    orders[_orderId] = Order({\n      currentLocation : _currentLocation,\n      currentOwner : _currentOwner,\n      currentPassword : keccak256(bytes(_currentPassword)),\n      requested : false,\n      nextLocation : \"\",\n      nextOwner : \"\",\n      nextPassword: \"\"\n    });\n    emit Transfer(\n      _orderId,\n      orders[_orderId].currentLocation,\n      orders[_orderId].currentOwner\n    );\n  }\n\n  function requestTransfer(\n    uint _orderId,\n    string memory _nextLocation,\n    string memory _nextOwner,\n    string memory _nextPassword\n  )\n    public\n    onlyOwner(msg.sender)\n    existingOrder(_orderId)\n    validCreation(_nextLocation, _nextOwner)\n    notAlreadyRequested(_orderId)\n  {\n    orders[_orderId].requested = true;\n    orders[_orderId].nextLocation = _nextLocation;\n    orders[_orderId].nextOwner = _nextOwner;\n    orders[_orderId].nextPassword = keccak256(bytes(_nextPassword));\n  }\n\n  function approveTransfer(\n    uint _orderId,\n    string memory _currentPassword\n  )\n    public\n    onlyOwner(msg.sender)\n    existingOrder(_orderId)\n    comparePassword(\n      keccak256(bytes(_currentPassword)),\n      orders[_orderId].currentPassword\n    )\n  {\n    require(isTransferRequested(_orderId), \"No one to transfer to\");\n    orders[_orderId].currentLocation = orders[_orderId].nextLocation;\n    orders[_orderId].currentOwner = orders[_orderId].nextOwner;\n    orders[_orderId].currentPassword = orders[_orderId].nextPassword;\n    orders[_orderId].nextLocation = \"\";\n    orders[_orderId].nextOwner = \"\";\n    orders[_orderId].nextPassword = \"\";\n    orders[_orderId].requested = false;\n    emit Transfer(_orderId, orders[_orderId].currentLocation, orders[_orderId].currentOwner);\n  }\n\n  function rejectTransfer(\n    uint _orderId,\n    string memory _currentPassword\n  )\n    public\n    onlyOwner(msg.sender)\n    existingOrder(_orderId)\n    comparePassword(\n      keccak256(bytes(_currentPassword)),\n      orders[_orderId].currentPassword\n    )\n  {\n    require(isTransferRequested(_orderId), \"No one to reject transfer from\");\n    orders[_orderId].nextLocation = \"\";\n    orders[_orderId].nextOwner = \"\";\n    orders[_orderId].nextPassword = \"\";\n    orders[_orderId].requested = false;\n  }\n\n  function isTransferRequested(uint _orderId) public view existingOrder(_orderId) returns(bool){\n    return orders[_orderId].requested;\n  }\n\n  function getCurrentOwner(uint _orderId) public view existingOrder(_orderId) returns(string memory) {\n    return orders[_orderId].currentOwner;\n  }\n\n  function getNextOwner(uint _orderId) public view existingOrder(_orderId) returns(string memory) {\n    return orders[_orderId].nextOwner;\n  }\n}",
  "sourcePath": "/home/guna_shekar02/Documents/e-commerce-application/blockchain/contracts/Token.sol",
  "compiler": {
    "name": "solc",
    "version": "0.5.0+commit.1d4f565a.Emscripten.clang"
  },
  "schemaVersion": "3.0.2",
  "updatedAt": "2020-03-20T18:46:05.223Z",
  "devdoc": {
    "methods": {}
  },
  "userdoc": {
    "methods": {}
  }
}